:020000040800F2
:100000000020002049320008510E0008530E00085D
:1000100000000000000000000000000000000000E0
:10002000000000000000000000000000550E000865
:100030000000000000000000570E0008590E0008E4
:100040009932000899320008993200089932000864
:10005000610E0008993200089932000899320008B0
:100060009932000899320008993200089932000844
:10007000650E00089932000800000000750E0008A7
:10008000000000009932000800000000000000009D
:1000900099320008000000009932000899320008E7
:1000A000993200089932000899320008850E00083C
:1000B000950E00089932000899320008993200081C
:1000C00010B5064C2378002B07D1054B002B02D02E
:1000D000044800E000BF0123237010BD98000020F9
:1000E00000000000F4320008044B10B5002B03D0D0
:1000F0000349044800E000BF10BDC04600000000F6
:100100009C000020F4320008002243088B4274D384
:1001100003098B425FD3030A8B4244D3030B8B4208
:1001200028D3030C8B420DD3FF22090212BA030C11
:100130008B4202D31212090265D0030B8B4219D3F2
:1001400000E0090AC30B8B4201D3CB03C01A524112
:10015000830B8B4201D38B03C01A5241430B8B425A
:1001600001D34B03C01A5241030B8B4201D30B0343
:10017000C01A5241C30A8B4201D3CB02C01A52416A
:10018000830A8B4201D38B02C01A5241430A8B422D
:1001900001D34B02C01A5241030A8B4201D30B0216
:1001A000C01A5241CDD2C3098B4201D3CB01C01A30
:1001B000524183098B4201D38B01C01A524143093A
:1001C0008B4201D34B01C01A524103098B4201D328
:1001D0000B01C01A5241C3088B4201D3CB00C01A95
:1001E000524183088B4201D38B00C01A524143080D
:1001F0008B4201D34B00C01A5241411A00D2014632
:10020000524110467047FFE701B5002000F006F8A4
:1002100002BDC0460029F7D076E770477047C04658
:10022000002B11D1002A0FD1002900D1002802D0C3
:100230000021C943081C07B4024802A140180290DB
:1002400003BDC046D9FFFFFF03B4684601B502985D
:1002500000F030F8019B9E4602B00CBC7047C046CF
:10026000F0B5CE46474615042D0C2E0080B5070488
:10027000140C3F0C9946030C7E435D436743634374
:100280007F19340CE4199C46A54203D980235B02F4
:100290009846C4444B46514343433604360C250C20
:1002A00024046544A4195918491920000CBC90462F
:1002B0009946F0BDF0B557464E464546DE46E0B598
:1002C000040083B00D00924699468B422FD82CD063
:1002D0004946504600F0AEF829000600200000F024
:1002E000A9F8331A9846203B9B4600D574E0534644
:1002F0005A4693401F005346424693401E00AF4269
:1003000029D826D05B46A41BBD41002B00DA79E03A
:10031000002200230092019301235A469340019347
:10032000012342469340009319E08242D0D9002233
:100330000023009201930C9B002B01D01C605D6098
:100340000098019903B03CBC90469946A246AB4642
:10035000F0BDA342D6D90022002300920193434668
:10036000002BE8D0FB0772081A4346467B080EE0D4
:10037000AB4201D1A2420CD8A41A9D4101202419FC
:100380006D410021013E24184D41002E06D0AB42A4
:10039000EED9013E24196D41002EF8D15B4600983C
:1003A000019900196941002B22DB2B005A46D340EA
:1003B0002A004446E2401C005B461500002B2CDB63
:1003C00026009E40330026004746BE403200801A79
:1003D000994100900191AEE7424620239B1A524674
:1003E000DA40414613004A468A4017001F4382E71D
:1003F000424620239B1A2A0046469A402300F34097
:100400001343D5E74246202300219B1A0022009186
:1004100001920122DA40019282E74246202326001F
:100420009B1ADE402F00B446974066463B0033439C
:10043000C9E7C04610B5002903D100F007F8203005
:1004400002E0081C00F002F810BDC0461C21012388
:100450001B04984201D3000C10391B0A984201D3A7
:10046000000A08391B09984201D30009043902A285
:10047000105C40187047C0460403020201010101EC
:10048000000000000000000030B589B014220021F7
:1004900003A802F027FF1C4BD96A80221143D962BE
:1004A000D96A0A400092009ADA6A01242243DA6289
:1004B000DA6A22400192019AD96A02221143D96272
:1004C000DB6A1A400292029BA025ED050022F22170
:1004D0000901280001F0A6F8E423DB00039304944B
:1004E00000230593069303A9280000F0D7FF80237B
:1004F0001B010393049405940323069303A9280086
:1005000000F0CCFF09B030BD0010024010B504006F
:10051000002280218900A020C00501F083F8002C72
:1005200009D0012C0FD0012280214900A020C00554
:1005300001F078F806E0002280214900A020C005E3
:1005400001F070F810BD012280214900A020C005F3
:1005500001F068F8F6E70000F0B5DE4657464E4673
:100560004546E0B587B000235EE0544B1968013181
:10057000196006E001320B2A15DC5149895C3029EB
:10058000F3D04E4909680A29F4D14E490C704870DD
:10059000A10061184B00D9B241184B4B1970411F93
:1005A0004A4B1974E6E7029B0190494A1168CAB2A6
:1005B0000491029293465944059146480A005146D7
:1005C000815404994A1C9246DA4402005146484636
:1005D0005054414A914605994046505404998A1C0A
:1005E0009046D8444A4641466046505404990A1DF4
:1005F0009446DC444A4661465754049A06325A44AB
:1006000049468E54354A0599555441466846007B03
:100610005054334A54546146684600795054594600
:100620000131304A11700133102B3ADC244AD25C7C
:100630003B2AF8D101212C4A1170214A927B0D2AC4
:10064000F1D11F4AD27B0A2AEDD1284A11701C4AE7
:10065000907827490870D078487010798246887061
:1006600050798146C870907980460871D079844667
:100670004871177A8F71567ACE71957A0D72D07A49
:1006800003904872147B8C72507B0190C872527830
:10069000382AC8D10021094A116002220293019828
:1006A00069E70023104A1370104A137007B03CBC6E
:1006B00090469946A246AB46F0BDC046C000002019
:1006C0000C000020EC000020BE0000201C000020D8
:1006D000C8000020E0000020B0010020A801002098
:1006E0007C010020CC000020BC000020BD000020C8
:1006F0008000002070B50023664A1370664A1370AC
:10070000664A13700024022B13DC654AD25C302A3F
:1007100009D0652A0AD00133624AD25C302AF2D16C
:100720000334E4B2EFE70134E4B2F2E70234E4B2B6
:10073000F1E7032C06D0052C00D170E0092C00D184
:100740008EE070BD564BDB78542B27D0544BDB78B2
:10075000522B44D0524BDB784C2BECD14B3B524AC2
:1007600013704E4A1370514D03332B700020FFF766
:10077000CDFE2A784E4B1B689A42DCDC4D4A494B31
:100780001A72002280210901A020C00500F04AFF52
:100790000023454A1370414A1370CCE7533B424A49
:1007A00013703C4A1370414D01332B700020FFF74A
:1007B000ADFE2A783E4B1B689A42C7DC3E4A394B55
:1007C0001A74002280210901A020C00500F02AFF30
:1007D0000022354B1A7001322E4B1A70B6E7513B8E
:1007E000314A13702C4A1370304D02332B700120A4
:1007F000FFF78CFE2A782E4B1B689A42AADC2E4A01
:10080000284B1A74002280210901A020C00500F0A5
:1008100009FF0023244A13701F4A13709AE7204BE4
:10082000DB78522B00D089E70122244B1A70002577
:100830001E4B1D700020FFF769FE214A194B1A74E8
:10084000002280210901A020C00500F0EBFE164B1C
:100850001D70124B1D7071E701319142FCDD00E00B
:100860000023184A1278934200DD6AE70C49497860
:1008700001339942F5D10A49C97B0D29F1D10849C3
:10088000097C0A29EDD1104801680131016000217D
:10089000E3E7C046D4000020D5000020D6000020A9
:1008A000800000200C000020C4000020F600002082
:1008B000D8000020183300080C330008BC000020CA
:1008C00028330008BE000020C800002010B5214BCE
:1008D000984200D010BD204B1B78002BFAD000228C
:1008E00080218900A020C00500F09CFE1B4B1B68E6
:1008F000002B25D0012BEDD10022184B1A60184C8B
:1009000023680133236080210901A020C00500F085
:1009100089FE2268134B9A4206DD134A136801339D
:10092000136000220E4B1A600F4B1A680F4B1B68A6
:100930009A42CFDB0023084A13700B4A1360C9E7C1
:100940000122064B1A6080210901A020C00500F099
:1009500069FEBFE7C001002008000020B8000020A9
:10096000D00000203F060000D80000200400002036
:1009700010B510220249034802F026FC10BDC04603
:100980000C0000200002002010B51022024903488C
:1009900002F01AFC10BDC0461C000020000200201E
:1009A00010B5104B1C78002C03D0012C0CD0002467
:1009B00008E00D4B18600D4B196001230C4A1370B1
:1009C000084A1370200010BD094B1B78002B01D082
:1009D0000024F7E7054B186800F0B2FA0022014B3B
:1009E0001A70EFE7B400002004000020000000208F
:1009F0000800002072B6FEE700B587B01022002183
:100A000002A802F06FFC08220021684602F06AFC8E
:100A100015488023DB0503601323436000238360B4
:100A20009022FF32C2600361436101F041FC002863
:100A300014D180235B01029302A90B4801F08CFCC6
:100A400000280DD120230093002301936946064816
:100A500001F096FD002805D107B000BDFFF7CAFFE1
:100A6000FFF7C8FFFFF7C6FFC001002010B50A4816
:100A70000A4B0360002343607F2282608032C260A1
:100A8000036143618361C36101F038FB002800D139
:100A900010BDFFF7AFFFC0468001002000280040D6
:100AA00000B583B008220021684602F01BFC1A48FA
:100AB0001A4B03600023C3638022D20542601022D8
:100AC00082600B3A8263043A0261C360202142547F
:100AD000203283548362C222FF324262963AFF3A46
:100AE0008354283A4261036383614363C36100F026
:100AF00051FA00280CD10123009380235B0101935C
:100B00006946054800F0B6FB002803D103B000BDDC
:100B1000FFF770FFFFF76EFF9002002000240140F6
:100B200010B50B480B4B0360E1231B02436000230D
:100B30008360C36003610C2242618361C36103620D
:100B4000436202F09FFA002800D110BDFFF752FF68
:100B5000000200200044004010B50B480B4B03601E
:100B6000E1231B02436000238360C36003610C2206
:100B700042618361C3610362436202F083FA002829
:100B800000D110BDFFF736FFF8000020003801400B
:100B900000B59DB0382200210EA802F0A3FB14225C
:100BA000002109A802F09EFB24220021684602F0E1
:100BB00099FB20490B68204A1A4080231B011343EC
:100BC0000B600A230E93093B119310221292139388
:100BD00001331893002319938023DB021A93802397
:100BE000DB031B930EA800F07BFD00281CD10F2314
:100BF00009930C3B0A9300230B930C930D93012153
:100C000009A801F035F8002810D123230093002310
:100C10000393049380239B020193684601F03AF901
:100C2000002805D11DB000BDFFF7E4FEFFF7E2FE8E
:100C3000FFF7E0FE00700040FFE7FFFF70B500F037
:100C400059F9FFF7A5FFFFF71FFCFFF7D5FEFFF7E8
:100C50000DFFFFF725FFFFF763FFFFF77DFF12484A
:100C600001F04AFB114B1A68136820210B431360F3
:100C70000F4D0E4C10222900200002F0A5FA0A2385
:100C800008222900200002F04DF9FA20400000F06F
:100C900057F9FFF761FCFFF72DFDFA2189000120CC
:100CA000FFF77EFEE4E7C046C001002000020020FE
:100CB0000C00002010B5094B5A6B01210A435A63FE
:100CC000996B802252050A439A6300220021042076
:100CD00000F040FB042000F06DFB10BD001002404E
:100CE00010B586B004001422002101A802F0FAFA1F
:100CF0002268124B9A4201D006B010BD104B596BBE
:100D0000802292000A435A63D96A01221143D962B0
:100D1000DB6A13400093009B01920323029301A915
:100D2000A020C00500F0BAFB002200210C2000F03A
:100D300011FB0C2000F03EFBDEE7C0460024014022
:100D4000001002400268054B9A4200D07047044AE6
:100D5000116D8023DB020B431365F7E70028004089
:100D60000010024010B502688023DB059A4200D0D3
:100D700010BD074A936B01210B43936300220021AE
:100D80000F2000F0E7FA0F2000F014FBF0E7C04658
:100D90000010024010B588B004001422002103A8FE
:100DA00002F0A0FA2368264A934204D0254A9342CF
:100DB00021D008B010BD244B596B8022D2010A43C8
:100DC0005A63D96A02221143D962DB6A1340019344
:100DD000019BC02303930492BD3B069303A91B48C8
:100DE00000F05CFB002200211B2000F0B3FA1B2066
:100DF00000F0E0FADDE7144B996B802292020A437F
:100E00009A63D96A01221143D962DB6A1A400292BD
:100E1000029B0C2303930A3B049301330693013393
:100E2000079303A9A020C00500F038FB0022002191
:100E30001C2000F08FFA1C2000F0BCFAB9E7C04675
:100E400000380140004400400010024000040050FF
:100E5000FEE7FEE77047704710B500F05FF810BD81
:100E60007047000010B5024800F092F910BDC0466E
:100E70009002002010B5024801F0F0FA10BDC04603
:100E8000C001002010B5024801F0FCFB10BDC046B7
:100E9000F800002010B5024801F0F4FB10BDC04678
:100EA000000200207047000010B504000E4B1978B6
:100EB000FA208000FFF728F901000C4B1868FFF7B3
:100EC00023F900F083FA00280CD1032C01D901206A
:100ED00009E000222100013800F03CFA044B1C60BC
:100EE000002000E0012010BD900000208C000020B8
:100EF0009400002010B5084A136840210B4313608A
:100F00000320FFF7D1FF041E02D00124200010BDF2
:100F1000FFF7D0FEFAE7C04600200240034A1168FE
:100F2000034B1B785B1813607047C046F00200202B
:100F300090000020014B18687047C046F002002066
:100F400070B50400FFF7F6FF0500631C02D0044BE8
:100F50001B78E418FFF7EEFF401B8442FAD870BDFF
:100F60009000002010B582B00400084B18680849B2
:100F7000FFF7CAF84443019402E0019B013B01934F
:100F8000019B002BF9D102B010BDC0468C0000209F
:100F900040420F0070B5041E00D1E6E0436D002B07
:100FA00031D0636DDB0634D421688B680422134092
:100FB0002FD1626D6E4802400630FF3002436265F9
:100FC000886803220240012A2CD00022002A43D143
:100FD0006268C020000682422BD08020C005824279
:100FE00027D080200006824223D00A69920092080E
:100FF0000A61604A116860480140116011686068C8
:10100000014311601EE0836550228354FFF768FEA0
:10101000C7E7636D10221343636500225023E25437
:10102000012070BD0A68D20701D40022CEE7012258
:10103000CCE70A69920092080A6121680A6960682F
:1010400002430A612168CA6818208243CA60216885
:10105000CA68A0680243CA60464A1168474801400E
:1010600011601168606B400601431160226891684D
:10107000C90004D49068802149050143916021682A
:10108000CA683F480240CA602068C268E1682569B2
:10109000022D40D00B432021615C49030B432C21DE
:1010A000615C49000B43216B0B43A16989030B432E
:1010B000E169C9030B431343C360636AC222FF3271
:1010C000934205D02168CA68A06A03431343CB60EA
:1010D0002123E35C012B20D0E36B012B31D023686B
:1010E0001A69D20703D51A6901218A431A61226855
:1010F000536907218B43536122685369A16B0B43EA
:1011000053610023A365636D03229343023A1343A3
:101110006365002085E70423BCE71F33E35C002BF5
:1011200006D12268D16880235B020B43D360D3E7EA
:10113000636D202213436365A36D1F3A1343A365B8
:10114000CAE7226813690F490B40136121680A69D5
:10115000236C606C0343A06C034313430B61226850
:10116000136901210B431361C1E7012059E7C04610
:10117000FDFEFFFF08270140FFFFC3FFFFFFFFFD4C
:101180001902FEFF03FCFFFF704770477047000025
:1011900010B5040003681A68520702D55A6852074E
:1011A00005D41A6812072DD55A6812072AD5626D20
:1011B000D20604D4616D802292000A436265D96828
:1011C000C0221201114214D12022A25C002A10D1A7
:1011D0001A6812070DD59A68520734D45A680C2140
:1011E0008A435A60636D224A13400432FF3213432C
:1011F00063652000FFF7C8FFA369012B02D02368B5
:101200000C221A6023681A68120602D55B681B0656
:1012100022D423681A68D20614D55A68D20611D58A
:10122000226B002A02D0DA68D20708D5A26D02210B
:101230000A43A26510221A602000FFF7A7FF236867
:1012400010221A6010BD636D202213436365A36DE5
:101250001F3A1343A365CCE7626D80235B021343FF
:1012600063652000FFF791FF236880221A60D0E7B2
:10127000FEFEFFFF70B504000D005023C35C012B80
:101280005CD001225023C25403689A68520723D4C9
:101290002B4A4968914232D0996A2A685203520B0C
:1012A0000A439A622B685B031FD42B689B0305D506
:1012B000244A11688023DB030B4313602B68DB0394
:1012C00005D5204A116880235B040B43136000227C
:1012D0005023E254002032E0436D20221343436543
:1012E00000225023C254012029E0164A11688023AD
:1012F0001B040B4313600A20FFF734FED5E7996AFD
:101300002A685203520B914399622B685B0304D500
:101310000C4A13680C490B4013602B689B0304D5DF
:10132000084A136809490B4013602B68DB03CED5CC
:10133000044A136806490B401360C8E7022070BDD9
:101340000110000008270140FFFF7FFFFFFFBFFFE4
:10135000FFFFFFFE70B5002811DB8208134DC0327D
:101360009200545903231840C000FC331E008640ED
:10137000B44389010B4083402343535170BDC0B235
:101380000F220240083A920806329200084BD31806
:101390005D6803242040C000FF2214008440A54360
:1013A00089011140814029435960E7E700E100E0ED
:1013B00000ED00E0002805DB1F2318401E3B8340A2
:1013C000014A13607047C04600E100E001380A4B53
:1013D00098420FD8094A50600948036A1B021B0A49
:1013E000C02109060B430362002393600733136097
:1013F000002070470120FCE7FFFFFF0010E000E045
:1014000000ED00E010B52523C35C022B06D00423B9
:10141000C36300222033C254012010BD0268136848
:101420000E218B43136001680A6801239A430A6006
:10143000016C1C22446C22401C0094404C6025220C
:10144000835400222333C2540020E6E710B525233D
:10145000C35C022B03D00423C363012010BD0268C8
:1014600013680E218B43136001680A6801239A43B5
:101470000A60016C1C22446C22401C0094404C60A9
:101480002522835400222333C254836B002B02D0C5
:1014900098470020E2E70020E0E70000F0B50023D5
:1014A00057E085685F000326BE40B543CE68BE4066
:1014B000354385604568A5432C004D682E090125FC
:1014C00035409D402C43446051E0DC080834A400C2
:1014D000265807251D40AD000F27AF40BE430F69BA
:1014E000AF403D003543255054E0052700E000277C
:1014F000AF403D0035430234A400434EA551434C58
:101500002568D44326002E404F68FF0301D51543BC
:101510002E003E4D2E606D682E0026404F68BF03A2
:1015200001D515432E00394D6E60AD682E00264062
:101530004F68FF0201D515432E00344DAE60ED68B3
:101540002C404E68B60201D52A4314002F4AD460BD
:1015500001330A681400DC4055D001249C4022402D
:10156000F6D003254E683540013D012D99D903245D
:101570004D682C40032C08D0C4685E000325B5409C
:10158000AC438D68B5402C43C46003244D682C40A7
:10159000022C9AD005685E0003242700B740BD43A3
:1015A0004F683C40B4402C430460C024A4024D6802
:1015B0002542CDD0164D6C6B012634436C639C08DC
:1015C000A51CAD00104EAE5903271F40BD000F27CC
:1015D000AF40BE43A027FF05B84288D00D4FB842A8
:1015E0000BD00D4FB8420AD00C4FB84209D00C4F67
:1015F000B84200D179E706277AE7012778E7022782
:1016000076E7032774E7F0BD0000014000040140C5
:10161000001002400004005000080050000C005070
:10162000001C0050002A01D1816270478161FCE7F3
:1016300010B5264BDA680C231340082B42D00C2B34
:1016400011D0042B09D0214B5A68520B07231340A9
:10165000013380200002984010BD1C4B1B68DB0644
:1016600032D51B48F8E7910C0F230B401949C85C91
:10167000920D03231A40541C144BDB68DB030DD47A
:10168000124B1B68DB0613D5114A00230021FEF71D
:10169000E7FD22000023FEF7C3FDDDE70E4A00232D
:1016A0000021FEF7DDFD22000023FEF7B9FDD3E7A0
:1016B0000A4A00230021FEF7D3FD22000023FEF793
:1016C000AFFDC9E70448C7E70448C5E7001002407A
:1016D00000093D005033000800127A000024F40095
:1016E000F0B583B0041E00D19EE2CA4BDA680C2527
:1016F0001540DE6880235B021E400368DB0736D599
:10170000082D2CD00C2D28D06368802252029342E1
:101710004DD0A022D202934250D0BE4B1A68BE498F
:101720000A401A601A68802149020A400192019A0F
:101730001A68BA490A401A606368002B4AD0FFF75A
:10174000F9FB0700B34B1B689B0310D4FFF7F2FBB8
:10175000C01B6428F6D9032067E2002ED4D0AD4B1D
:101760001B689B0303D56368002B00D15FE22368ED
:101770009B0765D5E368042D3CD00C2D38D0002B99
:1017800000D1B0E0A3490A680920824313430B60EB
:10179000FFF7D0FB06009F4B1B685B0700D599E065
:1017A000FFF7C8FB801B0228F5D903203DE2994AC8
:1017B000116880235B020B431360BDE7954B1968EA
:1017C0008022D2020A431A601968802252020A4318
:1017D0001A60B1E7FFF7AEFB07008E4B1B689B0357
:1017E000C5D5FFF7A7FBC01B6428F6D903201CE270
:1017F000002EC4D1874A1268520702D5002B00D1AF
:1018000017E2844E726886490A40216909020A4338
:101810007260326809218A4313433360FFF708FF7F
:10182000F26812090F2313407E4AD35CD8407E4BE6
:1018300018607E4B1868FFF737FB002800D0F4E1F2
:101840002368DB062DD5002D60D1724B1B689B05EC
:1018500003D5E369002B00D1EDE16E4A536874496A
:101860000B40616A0B43536053681B021B0A216AD9
:1018700009060B435360636A590B013180231B0235
:101880008B40D16809090F220A4066498A5CD3401F
:10189000654A1360654B1868FFF706FB002800D007
:1018A000C3E123681B077DD56369002B67D0594AC4
:1018B000136D01210B431365FFF73CFB0600554BED
:1018C0001B6D9B076ED4FFF735FB801B0228F6D9F2
:1018D0000320AAE14F494B68514A13402269120282
:1018E00013434B60ACE74B4A136801218B431360F1
:1018F000FFF720FB0600474B1B685B07A0D5FFF7EF
:1019000019FB801B0228F6D903208EE1E369002B26
:1019100022D0404A116880235B000B431360FFF71D
:1019200009FB06003B4B1B689B0506D4FFF702FB37
:10193000801B0228F6D9032077E1364A53683C49D8
:101940000B40616A0B43536053681B021B0A216AF8
:1019500009060B435360A4E72E4A136835490B4030
:101960001360FFF7E7FA06002A4B1B689B0598D522
:10197000FFF7E0FA801B0228F6D9032055E1254A3B
:10198000136D01218B431365FFF7D4FA0600214B39
:101990001B6D9B0706D5FFF7CDFA801B0228F6D9F1
:1019A000032042E123685B0700D491E0194B9B6B55
:1019B000DB002CD4174A916B80235B050B439363A8
:1019C00001261D4B1B68DB053CD5A3688022520015
:1019D00093424BD0002B50D10E4B1A6D15490A4043
:1019E0001A651A6D15490A401A65A368002B5ED066
:1019F000FFF7A0FA0700074B1B6D9B0566D4FFF7A6
:101A000099FAC01B0E4B9842F5D903200DE1002630
:101A1000D7E7C04600100240FFFFFEFFFFFFFBFFBD
:101A2000FFE0FFFF383300088C0000209400002006
:101A3000FF1FFFFFFFFEFFFF00700040FFFBFFFFE7
:101A400088130000804A116880235B000B431360F9
:101A5000FFF770FA07007C4B1B68DB05B5D4FFF776
:101A600069FAC01B6428F6D90320DEE0774A116DBD
:101A700080235B000B431365B7E7A022D20093429B
:101A800009D0724B1A6D72490A401A651A6D714974
:101A90000A401A65A9E76D4B196D013AFF3A0A43EE
:101AA0001A65196D802252000A431A659DE7FFF7F7
:101AB00041FA0700654B1B6D9B0507D5FFF73AFA06
:101AC000C01B654B9842F5D90320AEE0012E21D012
:101AD00023689B063CD5A369002B21D05B4B9968FA
:101AE0000120014399605A6B02435A635B4A116AB1
:101AF00080239B010B431362FFF71CFA0600534B34
:101B00009B689B0724D4FFF715FA801B0228F6D99F
:101B100003208AE04D4A936B51490B409363D7E70A
:101B20004A4A936801218B4393604C4A136A4D499A
:101B30000B401362FFF7FEF90600444B9B689B07BE
:101B400006D5FFF7F7F9801B0228F6D903206CE0D1
:101B5000A36A002B00D170E00C2D49D0022B12D0CB
:101B60003A4A136840490B401360FFF7E3F9040059
:101B7000364B1B689B0139D5FFF7DCF9001B0228A7
:101B8000F6D9032051E0314A136837490B401360FE
:101B9000FFF7D0F905002D4B1B689B0106D5FFF719
:101BA000C9F9401B0228F6D903203EE02749CB683B
:101BB0002E4A1340E26A206B0243606B02431343D8
:101BC000CB600A6880235B0413430B60FFF7B2F914
:101BD00004001E4B1B689B0106D4FFF7ABF9001BEA
:101BE0000228F6D9032020E000201EE000201CE09F
:101BF000012B24D0154BDA6880235B021340E16A85
:101C00008B4201D0012010E0F0239B031340216B95
:101C10008B4201D0012008E0C0231B041A40636BF3
:101C20009A420ED0012000E0012003B0F0BD012057
:101C3000FBE70120F9E70120F7E70020F5E70120A5
:101C4000F3E70020F1E7C0460070004000100240BA
:101C5000FFFEFFFFFFFBFFFF8813000000000140B5
:101C6000FFFFFFEFFFDFFFFFFFFFFFFEFFFF02FFB2
:101C700070B505000C00002800D1D1E06A4B1A684D
:101C8000012313408B4235D32B689B0706D5674A47
:101C9000D368F0218B43A9680B43D3602B68DB0723
:101CA0007BD56B68022B3CD0032B40D0012B44D05A
:101CB0005E4A1268920500D4B4E05C49CA68032009
:101CC00082431343CB60FFF735F906006B68022BA4
:101CD00039D0032B45D0012B51D0544BDB680C225B
:101CE0001A425AD0FFF726F9801B514B9842F4D97B
:101CF00003207DE04C4A136801218B43234313608A
:101D0000FFF718F90600484B1A68012313409C425C
:101D1000BAD0FFF70FF9801B454B9842F3D9032047
:101D200066E0424A12689203C7D4012060E03F4A4D
:101D300012689201C1D401205AE03C4A126852074D
:101D4000BBD4012054E0394BDA680C231340082B34
:101D500023D0FFF7EFF8801B354B9842F3D90320CF
:101D600046E0324BDA680C2313400C2B15D0FFF7FA
:101D7000E1F8801B2E4B9842F3D9032038E02B4B1F
:101D8000DA680C231340042B07D0FFF7D3F8801B2D
:101D9000274B9842F3D903202AE0234B1A680123EA
:101DA00013409C4225D32B685B0706D51F4AD36896
:101DB00020490B40E9680B43D3602B681B0707D50C
:101DC0001A49CB681C4A13402A69D2001343CB60DE
:101DD000FFF72EFC154BDA6812090F231340174A40
:101DE000D35CD840164B1860164B1868FFF75CF8A8
:101DF00070BD0D4A136801218B4323431360FFF725
:101E000099F80600084B1A68012313409C42CAD077
:101E1000FFF790F8801B064B9842F3D90320E7E7C1
:101E20000120E5E70120E3E7002002400010024026
:101E300088130000FFF8FFFFFFC7FFFF38330008DB
:101E40008C00002094000020014B18687047C046A9
:101E50008C00002010B5FFF7F7FF044BDA68120A78
:101E600007231340024AD35CD84010BD0010024043
:101E70004833000810B5FFF7E7FF044BDA68D20AD1
:101E800007231340024AD35CD84010BD0010024023
:101E90004833000870B5040082231B0102681A420F
:101EA0005AD0704B9B6BDB0000D593E06D4A916B71
:101EB00080235B050B43936301256B4B1B68DB059C
:101EC00000D489E0674B1A68C0239B031A406168FD
:101ED0000B409A4200D194E0C0239B020A001A40B2
:101EE0009A4200D195E05F4B1B6DC02292021340D5
:101EF0001FD011408B4202D02268920608D4C02223
:101F00009202A1680A40934213D023681B0510D5A2
:101F1000544B186D554A02401E6D80210903314310
:101F20001965196D524E314019651A65C30500D502
:101F300076E06268C0239B0211001940994200D1EB
:101F40007EE048490B6DC022920260680240134354
:101F50000B65012D00D17DE02368DB0706D5414AE2
:101F6000D36C03218B43E1680B43D36423689B0745
:101F700006D53C4AD36C0C218B4321690B43D364B7
:101F800023685B0706D5374AD36C3A490B40616931
:101F90000B43D36423681B0706D5324AD36C3649FA
:101FA0000B40A1690B43D36423685B0606D52D4A19
:101FB000D36C32490B40216A0B43D36423681B0660
:101FC0004ED5284AD36C2E490B40E1690B43D364AC
:101FD000002070BD002570E7234A116880235B0054
:101FE0000B431360FEF7A6FF06001F4B1B68DB05C3
:101FF00000D567E7FEF79EFF801B6428F5D9032014
:10200000E7E7C0239B03A06803409A4200D063E740
:1020100069E7144B1B689B0300D464E70120D8E7F1
:10202000FEF788FF06000F4B1B6D9B0500D580E770
:10203000FEF780FF801B134B9842F4D90320C8E7BA
:1020400008490B6810480340C020800302401A432F
:102050000A6076E70A008B6B0C490B4093637BE7C1
:102060000020B6E70010024000700040FFFFFCFFB8
:10207000FFFFF7FFFFF3FFFFFFCFFFFFFFFFFFFBB8
:10208000FFFFF3FF88130000FFFFCFFFFFFFFFEF0D
:1020900070B504000268D368A0218B43D360FEF7BB
:1020A00049FF05002368DB689B0608D4FEF742FF62
:1020B000401BFA239B009842F4D9032000E0002043
:1020C00070BD70B504000368DA68520601D50020BF
:1020D00070BD01225242DA60FEF72CFF0500236832
:1020E000DB685B0608D4FEF725FF401BFA239B0044
:1020F0009842F4D90320EBE70020E9E770B5041E0D
:1021000063D02123C35C002B41D002222123E2545F
:102110002368C8325A622368773A5A622000FFF770
:10212000D0FF051E39D12268936829490B4093607E
:1021300021688A68636820690343A06903431343E5
:102140008B602368E2681A6121680B69A268120437
:1021500013430B612268D36880218B43D3602268CC
:10216000D36C7D398B43D3642168CB6CE2696069A1
:1021700002431343CB6423689B689B0615D52368F1
:10218000FF225A62FE3A2123E254280070BD002249
:102190002033C254FEF7D6FDB7E72368FF225A6208
:1021A000FB3A2123E2540125EFE72000FFF770FFFF
:1021B0000028E4D02368FF225A62FB3A2123E2542C
:1021C0000022013BE2540125DFE70125DDE7C0469F
:1021D000BFFF8FFF03688022D20590421BD0134AB5
:1021E000904218D0124A904215D08022D2059042D7
:1021F00016D00E4A904213D00D4A904210D0802241
:1022000093430A69134303608B68C3620B6883625C
:10221000012343617047702293434A681343E4E704
:10222000044A1340CA681343E9E7C0460008014066
:1022300000140140FFFCFFFF30B5036A046A01256A
:10224000AC4304628469EF35AC43120122430A2493
:10225000A34319438261016230BD000030B5036AB7
:102260001024A34303628469036A054D2C401203C2
:102270002243A024A343090119438261016230BDB6
:10228000FF0FFFFF0B008168702291431943072362
:10229000194381607047000030B58468034D2C40BD
:1022A0001B021A4311432143816030BDFF00FFFF31
:1022B00070B5041E1ED03923C35C002B14D0392501
:1022C00002236355211D2068FFF784FF01233E226E
:1022D000A354043AA3540132A3540132A35401324B
:1022E000A3546355002070BD00223833C254FEF75A
:1022F00039FDE4E70120F6E73923C35C012B01D067
:102300000120704702223833C2540268D368012189
:102310000B43D36003688022D20593420BD00C4A52
:10232000934208D00B4A934205D01A6801210A4310
:102330001A600020E5E7996807220A40062A05D0BE
:102340001A6801210A431A600020DAE70020D8E762
:10235000000801400014014010B504003823C35C9C
:10236000012B00D172E001223823C2540132013323
:10237000C254026893683648034093600B68402B50
:1023800059D011D9702B3ED01FD8502B48D0602B7C
:1023900019D1CA6849682068FFF760FF602120688A
:1023A000FFF770FF002027E0102B04D009D9202B65
:1023B00001D0302B07D119002068FFF763FF002000
:1023C0001AE0002BF7D0012016E080225201934240
:1023D00011D0802292019342F5D1CB684A68896876
:1023E0002068FFF759FF226891688023DB010B43C7
:1023F0009360002000E0002001223923E2540022F3
:10240000013BE25410BDCB684A6889682068FFF739
:1024100043FF2268936877210B4393600020EBE72A
:10242000CA6849682068FFF707FF50212068FFF756
:1024300029FF0020E0E7CA6849682068FFF7FCFE32
:1024400040212068FFF71EFF0020D5E70220D9E7D2
:102450008800FFFF704770477047704710B5040051
:1024600003681A6992070FD5DA6892070CD5032220
:1024700052421A610123037603689B699B0755D07A
:10248000FFF7E9FF0023237623681A69520712D564
:10249000DA6852070FD5052252421A6102232376C9
:1024A00023689A69C0239B001A4245D02000FFF799
:1024B000D2FF0023237623681A69120710D5DA6841
:1024C00012070DD5092252421A610423237623688C
:1024D000DB699B0737D02000FFF7BDFF0023237681
:1024E00023681A69D20612D5DA68D2060FD51122EE
:1024F00052421A61082323762368DA69C0239B00BD
:102500001A4227D02000FFF7A6FF00232376236876
:102510001A69D20702D5DA68D20722D423681A6969
:10252000520602D5DA68520622D410BDFFF792FF98
:102530002000FFF791FFA5E72000FFF78BFF2000A9
:10254000FFF78AFFB5E72000FFF784FF2000FFF7C1
:1025500083FFC3E72000FFF77DFF2000FFF77CFF2C
:10256000D3E7022252421A612000FEF7AFF9D5E705
:10257000412252421A612000FFF76FFFD5E70000A9
:1025800030B53823C35C012B26D001223823C25436
:1025900001320133C2540268536894687025AB431A
:1025A0000D682B43536003688022D20593420DD0FF
:1025B0000A4A93420AD00A4A934207D00122392399
:1025C000C2540022013BC254002030BD80229443FB
:1025D0004A6814439C60F1E70220F6E700080140D6
:1025E0000014014030B5EFF31084012181F310880D
:1025F00002681368124D2B40136084F31088EFF3C8
:102600001084012383F31088026893688B439360DE
:1026100084F31088036E012B05D02023C3670023A9
:102620000366436630BDEFF3108183F310880268C0
:1026300013681024A343136081F31088EDE7C046AC
:10264000DFFEFFFF10B5EFF31081012383F3108845
:10265000026813684024A343136081F31088202389
:10266000836700238366FEF78FF910BD704710B5AE
:10267000806A00235A228352083A8352FFF7F6FFFA
:1026800010BD704770B504000168CB6908688D689B
:10269000AA4A1A400AD19E0608D5860606D5636E58
:1026A000002B00D145E12000984742E1002A00D1EB
:1026B0008AE001222A4003D1A14E304200D183E0BA
:1026C000DD0707D5C50505D501260E6280256159B0
:1026D00031436151990709D5002A07D021680225A5
:1026E0000D627E356159042631436151590709D580
:1026F000002A07D0216804250D627C356159022625
:102700003143615119070AD5810601D4002A06D048
:10271000226808251562802162582A4362501A05F2
:102720000AD5420108D52268802109011162802161
:10273000625820252A4362508022A258002A00D1E4
:10274000F7E09B0606D5830604D5636E002B01D007
:10275000200098478023E25823689B685B0602D4D8
:102760002823134229D02000FFF73CFF23689B68F1
:102770005B061ED5EFF31081012383F310882268D6
:10278000936840208343936081F31088236F002B6C
:102790000BD06C4A9A63206FFEF758FE002800D1D8
:1027A000C7E0206F836B9847C3E02000FFF75EFF10
:1027B000BFE02000FFF75AFFBBE02000FFF756FF05
:1027C00000228023E250B4E0226E012A11D0DA0206
:1027D00002D56A0200D5A1E01A0600D4A5E00206DF
:1027E00000D4A2E0A36E002B00D1A2E02000984705
:1027F0009FE0DA06EBD5C206E9D510230B62236809
:102800009B685B0652D5226F13685B689BB2002BF6
:1028100000D18EE05821615A8B4200D389E05A21C1
:10282000635213681B689B0609D55823E15A02338B
:10283000E35AC91A89B22000FFF723FF79E0EFF3CA
:102840001080593981F31088226813683E4D2B405F
:10285000136080F31088EFF31080012383F3108856
:10286000226893688B43936080F31088EFF31081A4
:10287000012383F310882268936840208343936088
:1028800081F310882023E36700232366EFF3108190
:10289000013383F310882268136830388343136050
:1028A00081F31088206FFEF7ADFDBEE75823E15A93
:1028B0000233E25A891A89B2E35A9BB2002B38D00C
:1028C000002936D0EFF31085012080F310882268AC
:1028D00013681E4E3340136085F31088EFF31085A4
:1028E000012383F31088226893688343936085F300
:1028F00010882023E367002323666366EFF31080CC
:10290000013383F31088226813681025AB431360EA
:1029100080F310882000FFF7B4FE0AE080235B03F9
:102920000B62200000F08EFC03E05B0601D543063D
:1029300000D470BD2000FFF785FEFAE70F08000005
:10294000200100046F260008FFFEFFFFDFFEFFFFEF
:1029500070B55C23C25AC36F222B05D002689369FD
:1029600008210B43936170BD03685B6AD2B21A40C1
:10297000436D1A70436D013343655A22835A013BFC
:102980009BB28352835A9BB2002BECD1EFF310849D
:10299000012181F3108802681368194D2B401360E0
:1029A00084F31088EFF31084012383F31088026806
:1029B00093688B43936084F310882023C3670023BC
:1029C0004366036E012B17D100230366EFF31084D7
:1029D000013383F3108801680B68102293430B6066
:1029E00084F310880368D9690A4200D01A62582318
:1029F000C15AFFF746FEB6E7FDF7BAFFB3E7C04698
:102A0000DFFEFFFF70B55C23C25AC36F222B05D0D7
:102A10000268936908210B43936170BD03685B6A88
:102A20001A40436D1A80436D023343655A22835A1C
:102A3000013B9BB28352835A9BB2002BEDD1EFF343
:102A40001084012181F3108802681368184D2B400F
:102A5000136084F31088EFF31084012383F310884C
:102A6000026893688B43936084F310882023C367C4
:102A700000234366036E012B17D100230366EFF397
:102A80001084013383F3108801680B68102293438C
:102A90000B6084F310880368D9690A4200D01A6277
:102AA0005823C15AFFF7EDFDB7E7FDF761FFB4E723
:102AB000DFFEFFFFF8B50500016883680269134374
:102AC00042691343C26913430A689A480240134398
:102AD0000B602A68536898490B40E9680B435360C0
:102AE000AB692A6895498A4201D0296A0B439168EB
:102AF000934801400B4393602A68924B9A4216D048
:102B0000914B9A4227D08D4B9A4239D010238B4952
:102B10008A4257D080221202E969914200D191E0A5
:102B2000082B00D9F6E09B00884AD3589F46884B73
:102B3000D96C03230B40012B09D0002B05D0022BAD
:102B40003AD0032B05D01023E1E70123DFE704236C
:102B5000DDE70823DBE77E4BD96C0C230B40042B0D
:102B60000AD005D9082B29D00C2B07D10823CEE792
:102B7000002B03D10023CAE70423C8E71023C6E7CC
:102B8000734BDB6CC02109010B408021C9008B42D3
:102B90000ED009D9802109018B4211D0C021090131
:102BA0008B4207D10823B2E7002B03D10023AEE705
:102BB0000423ACE71023AAE70223A8E70223A6E731
:102BC0000223A4E7022B2CD025D9042B30D0082BCC
:102BD00032D1802000020024002800D182E06A68FF
:102BE00053009B18984200D29AE01303984200D9F0
:102BF00098E0070E06025008002180197941002351
:102C0000FDF70EFB534BC218534B9A4200D98BE091
:102C10002B68D86066E0002B0ED1FFF71BF900246B
:102C2000DAE74B4B1B68DB0609D54C480024D3E799
:102C3000FEF7FEFC0024CFE700200124CCE7484843
:102C40000024C9E7082B33D89B00464AD3589F4637
:102C5000802000020024002844D040006B685B08FC
:102C6000C0186968FDF750FA83B20004000C010037
:102C700010393D4A914259D80F2293434008083AEF
:102C8000104018432B68D8602CE0FFF7E3F80024CD
:102C9000E1E7FFF7EFF80024DDE72D4B1B68DB06CB
:102CA00009D52E480024D6E7FEF7C2FC0024D2E75F
:102CB00000200124CFE72A480024CCE7802000022E
:102CC000002400280ED06B685B08C0186968FDF707
:102CD0001BFA0004000C0200103A234B9A4227D83A
:102CE0002B68D86000236B66AB662000F8BDFFF749
:102CF000B1F80024E5E7FFF7BDF80024E1E7144B45
:102D00001B68DB0609D515480024DAE7FEF790FCBE
:102D10000024D6E700200124D3E711480024D0E79F
:102D20000124DFE70124DDE70124DBE70124D9E703
:102D30000124D7E7F369FFEFFFCFFFFF0048004012
:102D4000FFF4FFFF00380140004400405C330008FE
:102D50000010024000FDFFFFFFFC0F0000093D00D6
:102D60000024F40080330008EFFF0000436ADB0713
:102D700006D5026853682C490B40816A0B435360A7
:102D8000436A9B0706D50268536828490B40C16A0D
:102D90000B435360436A5B0706D5026853682449B6
:102DA0000B40016B0B435360436A1B0706D5026857
:102DB000536820490B40416B0B435360436ADB0669
:102DC00006D5026893681C490B40816B0B439360E6
:102DD000436A9B0606D50268936818490B40C16B8D
:102DE0000B439360436A5B060BD502685368144932
:102DF0000B40016C0B43536080235B03026C9A42CF
:102E00000AD0436A1B0606D5026853680D490B4079
:102E1000816C0B4353607047026853680A490B404A
:102E2000416C0B435360ECE7FFFFFDFFFFFFFEFF2C
:102E3000FFFFFBFFFF7FFFFFFFEFFFFFFFDFFFFF56
:102E4000FFFFEFFFFFFFF7FFFFFF9FFFF0B5C64655
:102E500000B504000F0016009846069D2368DB6944
:102E60003A009A4313005A425341B34253D16B1C68
:102E7000F4D0FEF75FF84346C01A85422CD3002DEC
:102E80002AD023681A685207E8D5DA691205E5D511
:102E9000802212011A62EFF31080012181F3108861
:102EA000226813681E4D2B40136080F31088EFF3E7
:102EB0001080012383F31088226893688B4393600A
:102EC00080F310882023A367E3678022A3500022A9
:102ED0005433E25403201FE0EFF31080012181F30B
:102EE0001088226813680E4D2B40136080F3108801
:102EF000EFF31080012383F31088226893688B43DB
:102F0000936080F310882023A367E3670022543383
:102F1000E254032000E0002004BC9046F0BDC0460F
:102F20005FFEFFFFF0B585B004000F0016001D0026
:102F3000836F202B02D0022005B0F0BD002962D0A3
:102F4000002A62D080235B0182689A4205D07423F4
:102F5000E35C012B08D10220EEE70369002BF6D1D8
:102F6000CB07F4D50120E7E701227423E2540022C5
:102F70000C33E2505F3BA367FDF7DCFF0390502367
:102F8000E6520233E65280235B01A2689A4204D0E3
:102F9000002600227423E25412E02369002B01D0A2
:102FA0000026F6E73E000027F3E722683388DB05BA
:102FB000DB0D936202365222A35A013B9BB2A3520D
:102FC0005223E35A9BB2002B0FD00095039B0022A3
:102FD00080212000FFF73AFF002818D1002FE4D00D
:102FE00023683A789A620137E5E70095039B00224F
:102FF00040212000FFF72AFF002801D003209BE793
:103000002023A36798E7012096E7012094E7032097
:1030100092E7000030B583B0040000228023C25044
:10302000FDF788FF050023681B681B070DD4236884
:103030001B685B0716D42023A367E367002323667E
:103040007422A354002003B030BD0D4B0093030045
:103050000022802189032000FFF7F8FE0028E6D037
:103060000320F0E7064B00932B0000228021C903C8
:103070002000FFF7EBFE0028DDD00320E3E7C04689
:10308000FFFFFF0110B5041E2ED0836F002B21D04F
:103090002423A3672268136801218B431360200057
:1030A000FFF708FD012814D0636A002B18D12268AD
:1030B00053680E490B405360226893682A218B4362
:1030C00093602268136829390B4313602000FFF7CF
:1030D000A1FF10BD00227433C254FDF75BFED7E799
:1030E0002000FFF743FEE2E70120F2E7FFB7FFFF12
:1030F00010B541655823C2520233C25200234366C1
:10310000836880225201934208D0002B15D10369B5
:10311000002B0ED1FF225C33C25215E00369002B55
:1031200003D1264A5C33C2520EE0FF225C23C25216
:103130000AE07F225C23C25206E0802252059342BD
:103140002BD000225C23C25200228023C2505E3B5F
:10315000C367EFF31084012181F31088026893683C
:103160000B43936084F3108880235B0182689A424A
:103170001ED0134B436600227423C254EFF3108118
:10318000733B83F31088026810682033FF330343D6
:10319000136081F31088002010BD0369002B03D158
:1031A0007F225C33C252CFE73F225C23C252CBE77F
:1031B0000369002BDDD1034B4366DCE7FF01000010
:1031C00051290008052A000870B5C36F202B01D0D3
:1031D000022070BD00292DD0002A2DD080235B0154
:1031E00084689C421FD07423C35C012B26D0012429
:1031F0007423C454002303660368114CA3420FD008
:103200005B681B020CD5EFF31085012383F3108854
:10321000046826688023DB043343236085F3108829
:10322000FFF766FFD5E70369002BDCD1CB07DAD5C2
:103230000120CEE70120CCE70120CAE70220C8E741
:1032400000480040704700000D4885460D480E4973
:103250000E4A002302E0D458C4500433C4188C42F0
:10326000F9D30B4A0B4C002301E013600432A24255
:10327000FBD3FDF717FE00F011F8FDF7DFFCFEE7CA
:10328000002000200000002098000020B433000837
:1032900098000020F4020020FEE7000070B5002630
:1032A0000C4D0D4C641BA410A64209D1002600F061
:1032B00021F80A4D0A4C641BA410A64205D170BD2A
:1032C000B300EB5898470136EEE7B300EB58984748
:1032D0000136F2E7AC330008AC330008AC33000829
:1032E000B033000803008218934200D17047197070
:1032F0000133F9E7F8B5C046F8BC08BC9E467047F4
:0C330000F8B5C046F8BC08BC9E467047FB
:10330C003B356565654C0D0A000000003B353030DF
:10331C003030303030534F4C0D0A00003B353030DC
:10332C0030303030305341470D0A000000000000AF
:10333C000000000001020304060708090000000059
:10334C0001020304030406080C10182030000000CE
:10335C00EE2C0008F62C0008FE2C0008142D00089A
:10336C000C2D0008142D0008142D0008142D000835
:10337C00BC2C00088A2C0008922C00089A2C0008FF
:10338C00B02C0008A82C0008B02C0008B02C0008A9
:08339C00B02C0008502C0008C1
:0833A40010CFFF7F01000000C3
:0433AC00E90000082C
:0433B000C100000850
:1033B4001400000001000000010000003B38303020
:1033C400303030303030303030340D0A67656C6561
:1033D4006E5F766572690D0A00000000000000004F
:1033E40000000000000000000000000000000000D9
:1033F40000000000000000000000000000000000C9
:1034040000000000000000000000000000000000B8
:1034140000000000000000000000000000000000A8
:103424000000000000000000000000000000000098
:103434003B3B3B3B3B3B3B3B3B3B3B3B00002000A4
:0834440001000000040000007B
:040000050800324974
:00000001FF
